:020000020000FC
:0C0000000C944D000C94C8020C94CF022C
:040028000C94D6025C
:040040000C94DD023D
:100050000000000000AA00000300950212009502B3
:1000600013003502005500001000430211009502F4
:100070001200950213002A0214002102EEEE000085
:1000800012002400370049005B006D0080009200E0
:10009000A400B600C900DB00ED0008E00EBF0FE5CC
:1000A0000DBF0027009368000093660000936F0067
:1000B00000936E000093600000936100009376004F
:1000C0000093740000937500009373000093640024
:1000D00000936500009370000E9468020E946B020A
:1000E00000241124222400E000BD0FEC09B902E035
:1000F0000BB908E10AB906E800BD4427552700E21C
:1001000007B90FE806B9369A8C9A8F9A929A949802
:1001100000E109BF00E00FBD0BE00EBD03E00BBD29
:100120000FEC0ABD04E008BF00E003BD0FE005BF0F
:1001300000EC0BBF789400C00E9487020E94E3018C
:1001400013FC0E941C0217FC0E94B80016FC0E94BF
:10015000C50015FC0E94D00007FC000006FC0E94B0
:10016000E30003FC0E94AE0114FC0E949002E4CF65
:10017000909160008091610001969093600080935F
:100180006100012D0F77102E0895009170000395E6
:100190000093700006FC0895012D0F7B102E08952A
:1001A00014FE089504B100000093650005B100003D
:1001B00000936400009373000E945902369A012D47
:1001C0000F7D102E089516FC03C027FC37C076C0A3
:1001D000012D0F7B102E27FC16C027FE00C0022D1C
:1001E0000068202E0027009360000093610032D049
:1001F0000AE5009368000E944302D2E0C0E00027B5
:10020000099309935BC0002D0F7B002E00926F00B5
:10021000022D0F77202E1091600020916100109325
:10022000780020937900002700936000009361001C
:100230000FEF099308830E94500240C09091600024
:1002400080916100109174002091750082179107D0
:10025000A8F10AC090916000809161000A96909385
:1002600074008093750008951091730026FC0CC0F3
:1002700000C0022D0062202E133778F0022D0F7D72
:10028000202E1A3750F41AC025FC01C003C01337C2
:1002900020F414C01A3708F011C0022D10E4012711
:1002A000202ED8DF909160008091610026FC089795
:1002B00026FE0B9706FD9068999389930895B3E005
:1002C000A0E0D2E0C0E020E00991199102171207E6
:1002D0002FEF09F00895099119910217E1F712071C
:1002E000D1F72497099119910D931D93909178005E
:1002F00080917900811B900B90937A0080937B0012
:1003000000C0199109911DC00000F0E0E0E40091E7
:100310007A001591011709F0E0F3319724910E94BA
:100320000D020895C80100979D938D9390917A00D6
:1003300080917B00081B190B10937A0000937B00BF
:10034000E0CF2FEF021731F4120721F4022D0061E4
:10035000202E089507FFE6CFD7CF089514FE089505
:1003600000E30021003131F0003391F0003259F008
:1003700014D00895509160000E94DF0150916100F7
:100380000E94DF010895509173000E94DF010895DB
:10039000509170000E94DF0108950091610010915A
:1003A0007600011709F4089500937600E3DFEBDF90
:1003B00008955F9BFECF4CB140936B0008955D9B09
:1003C000FECF5CB908955F9B08954CB140936B00DC
:1003D00000916600039500936600013041F00430FF
:1003E00089F0023041F0EA95033029F00895F0E0F9
:1003F000E0E5E395EDCF349604910E3EB1F004179D
:10040000A9F3F9CF3296049131961491E02FF12F90
:1004100040936800012D0860102E002700936600AD
:1004200008950CB15F99FDCF08954427012D077FF2
:10043000102EF3DFF6DF0895012D077F102E0995AA
:100440000895002D077C10916800012B002E00926A
:100450006F000895002D0064002E00926F000AE3E3
:10046000009368000E9443020895D2E0C0E0099121
:100470001991502F0E94DF01512F0E94DF010F3F81
:1004800009F0F5CF08950AE605BD20916800209394
:100490006D00222329F094980E94C10223BD089583
:1004A00000E005BD97980E94C102949AF8CF979AF0
:1004B000F6CFB0917100A0917200009164000D938D
:1004C000A03409F405D0A09372000ED018D008957E
:1004D000B1E0A0E0089500E4B0937100A093720031
:1004E0000D93A034E9F70895002711272227F0DFA4
:1004F0000D91100F08F42395A034D1F7089506E06C
:10050000259517950A95E1F7109373000895F894CF
:1005100000916E00102A002700936E0078940895D1
:100520000000012D0F7E102E0895000008950CE3A9
:10053000009368000E9443020E94AF020E94500292
:100540000E94AF02089555E30E94DF01089550E430
:100550000E94DF01089555E40E94DF01089504E63A
:1005600014E624E62A95F1F71A95D9F70A95C1F70A
:10057000089500ED1AEC1A95F1F70A95E1F70000DD
:10058000089503E013E11A95F1F70A95E1F708954C
:1005900030916E00689437F930936E001895309161
:1005A0006E00689436F930936E00189530916E00A5
:1005B000689434F930936E00189530916E00689409
:0805C00035F930936E00189527
:00000001FF
