:020000020000FC
:0C0000000C9455000C94E2030C94DB03FC
:040028000C94E90348
:040040000C94F00329
:100050000000000000AA00000300B0031300030327
:1000600016001A03180011030055000010002A039F
:100070001100B0031200DB021300F5021400D202DB
:10008000160000031700DF02EEEE0000120D24152B
:10009000371C49205B226D2580279228A429B62A87
:1000A000C92BDB2CED2DFC2D000008E00EBF0FE569
:1000B0000DBF0027009368000093660000936F0057
:1000C00000936E000093600000936100009376003F
:1000D0000093740000937500009373000093640014
:1000E00000936500009370000093820000938300EA
:1000F000009380000093810000937F000E946003C2
:100100000E94630322243324442400E000BD0FEC4A
:1001100009B902E00BB908E10AB906E800BD4427B5
:10012000552700E207B90FE806B9369A8C9A8F9ADC
:10013000929A949800E109BF00E00FBD0BE00EBD5C
:1001400003E00BBD0FEC0ABD04E008BF00E003BDF7
:100150000FE005BF00EC0BBF789400C00E94A20323
:100160000E94940233FC0E94CD0236FC0E94E10002
:1001700037FC0E94D40035FC0E94F30032FC0E9440
:100180007F0322FC0E94080127FC0E940B0143FC14
:100190000E94060226FC0E94270123FC0E945802AE
:1001A00034FC0E94AB03DACF909160008091610033
:1001B00001969093600080936100032D0F77302E9D
:1001C00008950091700003950093700047FC089516
:1001D0000027009360000093610026FC0895032D22
:1001E0000F7B302E089534FE089543FC089504B12A
:1001F00000000093650005B10000009364000093C7
:1002000073000E945103369A032D0F7D302E0895FE
:100210000E944003089543FC19C026FE03C044FE1B
:1002200015C00BC044FC09C0022D0064202E0BE455
:10023000009368000E942A0309C00BE40093680041
:100240000E942A030E94A3010E940602089536FC20
:1002500003C047FC08C076C0032D0F7B302E47FC3F
:100260002AC047FE16C090916000809161001091F5
:1002700074002091750082179107D0F50895909130
:100280006000809161000A969093740080937500DD
:100290000895042D0F7E402E042D0068402EEFDFC0
:1002A0000AE5009368000E942A03D2E0C0E000271C
:1002B0000993099347C01091600020916100109349
:1002C0007800209379000FEF0993088327FE0E949E
:1002D0003703022D0F7B202E042D0F77402E042D87
:1002E0000061402E002700936000009361002AC047
:1002F0001091730046FC0CC000C0042D0062402E1B
:10030000133778F0042D0F7D402E1A3750F41AC0A1
:1003100045FC01C003C0133720F414C01A3708F09D
:1003200011C0042D10E40127402EA9DF9091600038
:100330008091610046FC089746FE0B9706FD906889
:10034000999389930895B3E0A0E0D2E0C0E00991C9
:100350001991003009F00895099119910F3FE1F7C3
:100360002497099118810D931D9300937D0010939C
:100370007E009091780080917900181B090B1093F2
:100380007C0000937B00D2E0C2E0199109911F3FED
:10039000C9F117FD0AC000C0C80100979D938D9355
:1003A00010937B0000937C00F0CF90917B008091B4
:1003B0007C001F77081B190B00937A0015D0229739
:1003C000199109911F77021B104022F010681D93AC
:1003D0000D93DBCF01951395809179009091780072
:1003E000801B9040C801F2CFF0E0ECE800917A0069
:1003F00014913296101708F4FBCF319724910E9484
:10040000BE0208950FEF0D930C93089543FE0AD09A
:100410000C910F3F21F1009160001091610042FCAE
:1004200009C011C0B3E0A0E0D2E0C0E0042D086034
:10043000402E08959991899122979F770A971817CE
:10044000090750F508959D918D91129720E8292371
:100450009F771817090758F127FD09C015C0042D0B
:10046000077F402E0E9460030E94630308959091CD
:100470007D0080917E0018170907C8F4042D0460E0
:10048000402E0E94370308952FEF209368000E94AA
:100490002A03129622960895042D0B7F402E2EE6F5
:1004A000209368000E942A031296229608950895C8
:1004B00034FE089500E30221003131F0003391F061
:1004C000003259F01BD00895509160000E949002B4
:1004D000509161000E9490020895509173000E9413
:1004E0009002089532FE0E94F102509180000E9415
:1004F0009002509181000E94900208950091610045
:1005000010917600011709F4089500937600DCDF5E
:10051000E4DF08955F9BFECF4CB140936B000895DC
:100520005D9BFECF5CB908955F9B08954CB14093ED
:100530006B0000916600039500936600013041F066
:10054000043089F0023041F0EA95033029F0089533
:10055000F0E0E0E5E395EDCF349604910E3EB1F086
:100560000417A9F3F9CF3296049131961491E02F34
:10057000F12F40936800032D0860302E0027009370
:10058000660008950CB15F99FDCF08954427032DAF
:10059000077F302EF3DFF6DF0895032D077F302E1F
:1005A00009950895022D077C10916800012B202EDB
:1005B00020926F000895022D0068202E089500916A
:1005C000680000938400002700936000009361009E
:1005D0002FEF209368000E942A03022D0460202E32
:1005E0000895032D0460302E0895022D0064202EFE
:1005F00020926F000BE4009368000E942A03089584
:100600000E94A3010895D2E0C0E009911991502FF2
:100610000E949002512F0E9490020F3F09F0F5CFE7
:100620000895509160000E949002509161000E94D4
:10063000900208950E94A301D3E0C0E009911991AE
:10064000502F0E949002512F0E9490020F3F09F0FC
:10065000F5CF08950AE605BD2091680020936D004E
:10066000222329F094980E94D00323BD089500E02E
:1006700005BD97980E94D003949AF8CF979AF6CF29
:100680000091840010916100101750F00027009332
:100690006000009361000E943703022D0B7F202E23
:1006A0000895B0917100A0917200009164000D93C3
:1006B000A03409F405D0A09372000ED018D008958C
:1006C000B1E0A0E0089500E4B0937100A09372003F
:1006D0000D93A034E9F70895002711272227F0DFB2
:1006E0000D91100F08F42395A034D1F7089506E07A
:1006F000259517950A95E1F710937300089534FE38
:10070000089500917F0018E0010F1BF000937F0017
:100710000895002700937F00009160001091610010
:100720009091820080918300009382001093830057
:10073000181B090B28E0129F800110938000009382
:1007400081000895F89400916E00302A00270093EC
:100750006E00789408950000032D0F7E302E0895CA
:100760000000089555E30E949002089550E40E940D
:100770009002089555E40E949002089504E614E65C
:1007800024E62A95F1F71A95D9F70A95C1F7089545
:1007900000ED1AEC1A95F1F70A95E1F700000895BB
:1007A0000AE60A95F1F7089503E013E11A95F1F7C7
:1007B0000A95E1F7089530916E00689437F9309307
:1007C0006E00189530916E00689436F930936E0083
:1007D000189530916E00689434F930936E00189536
:0E07E00030916E00689435F930936E001895D4
:00000001FF
