:020000020000FC
:0200000027C017
:040004000C94480010
:1000500008E00EBF0FE50DBF0FEC09B900E000BDD1
:1000600002E00BB908E10AB906E800BD40E050E043
:100070008F9A929A03E005BF00E40BBF789400E0EA
:1000800003BD0AE605BD00C006D04030C1F4FCCF78
:1000900055E305D018955F9BFECF4CB108955D9B4D
:1000A000FECF5CB90895403051F408954A3A0000FB
:1000B00008950000089500000895979AE5CF0AE694
:1000C00005BDF0E0E2EEE40F649163BDDDCFAA0070
:1000D000000010005F0011005F0012005F00BB0015
:1000E000000000010406090B0E101316181B1D203A
:1000F0002225272A2D2F323437393C3F41444649A7
:100100004B4E505356585B5D606265676A6D6F7207
:100110007477797C7F818486898B8E909396989B67
:100120009DA0A2A5A7AAADAFB2B4B7B9BCBFC1C4C8
:10013000C6C9CBCED0D3D6D8DBDDE0E2E5E7EAED29
:08014000EFF2F4F7F9FCFF00F7
:00000001FF
