:020000020000FC
:080000000C9428000C945A0036
:040028000C945D00D7
:040040000C945F00BD
:1000500008E00EBF0FE50DBF0FEC09B900E000BDD1
:1000600002E00BB908E10AB906E800BD40E050E043
:1000700000E007B90FE806B98F9A929A00E00ABB30
:1000800003E005BF00E40BBF789400E109BF00E086
:100090000FBD0BE00EBD0DE30BBD08E00ABD04E093
:1000A00008BF00E003BD0AE605BD00C014D0403023
:1000B000E1F4FCCF55E313D01895369A189584B126
:1000C000000095B102E0979587950A95E1F75D9B51
:1000D000FECF8CB918955F9BFECF4CB108955D9B08
:1000E000FECF5CB90895979AE1CF0AE605BDF0E02E
:1000F000EEEFE40F0027F01F049103BDD7CF0001FE
:100100000406090B0E101316181B1D202225272A82
:100110002D2F323437393C3F414446494B4E5053E2
:1001200056585B5D606265676A6D6F727477797C43
:100130007F818486898B8E909396989B9DA0A2A5A3
:10014000A7AAADAFB2B4B7B9BCBFC1C4C6C9CBCE04
:10015000D0D3D6D8DBDDE0E2E5E7EAEDEFF2F4F765
:04016000F9FCFF00A7
:00000001FF
