:020000020000FC
:0C0000000C943C000C94DF010C94E60111
:040028000C94ED0146
:040040000C94F40127
:1000500000AA00000300C7011200C70100550000FC
:10006000100048011100C7011200C7011300C701A9
:100070001400F500EEEE000008E00EBF0FE50DBF26
:100080000027009368000093660000936F000093C0
:100090006E0000936000009361000093760000936F
:1000A0007400009375000093730000936400009344
:1000B00065000E9468010E946B010024112400E089
:1000C00000BD0FEC09B902E00BB908E10AB906E876
:1000D00000BD4427552700E207B90FE806B9369A54
:1000E0008F9A929A00E00ABB00E109BF00E00FBDC1
:1000F0000BE00EBD03E00BBD0FEC0ABD04E008BF32
:1001000000E003BD03E005BF00E40BBF789400C02E
:100110000E94B90117FC0E94A30016FC0E94B000C7
:1001200015FC0E94B5000E94080113FC0E944501C5
:1001300007FC000006FC000003FC0E94CA0014FC3F
:100140000E94C201E5CF909160008091610001960C
:100150009093600080936100012D0F77102E089519
:100160000000012D0F7B102E089514FE089504B198
:1001700000000093650005B1000000936400009347
:1001800073000E9459010E948701369A012D0F7D4C
:10019000102E089514FE089500E30021003131F07F
:1001A000003391F0003259F014D00895509160005E
:1001B0000E940401509161000E9404010895509131
:1001C00073000E9404010895509170000E94040180
:1001D00008950091610010917600011709F40895C7
:1001E00000937600E3DFEBDF0895002D077C10918C
:1001F0006800012B002E00926F0008955F9BFECFD8
:100200004CB140936B0008955D9BFECF5CB908959F
:100210005F9B08954CB140936B000091660003957D
:1002200000936600013041F0043089F0023041F063
:10023000EA95033029F00895F0E0E0E5E395EDCF8D
:10024000349604910E3EA1F00417A9F3F9CF32962B
:10025000049131961491E02FF12F409368000DD056
:1002600000270093660008950CB15F99FDCF0895B3
:10027000442707D0F5DFF8DF0895012D0860102E20
:100280000895012D077F102E0895FBDF099508952D
:100290000AE605BD0091680000936D00002311F08F
:1002A00003BD089500E005BD9798FBCFFACF979A5C
:1002B000F8CFB0917100A0917200009164000D938D
:1002C000A03409F405D0A09372000ED018D0089580
:1002D000B1E0A0E0089500E4B0937100A093720033
:1002E0000D93A034E9F70895002711272227F0DFA6
:1002F0000D91100F08F42395A034D1F7089506E06E
:10030000259517950A95E1F710937300089590913C
:100310006000809161001091740020917500821737
:10032000910758F000917300033758F00A3780F4B2
:1003300012FC15D0012D0B7F102E002700937300A7
:10034000089502E000937300012D0460102E0895BB
:1003500001E000937300012D0460102E0895909128
:100360006000809161000A969093740080937500FC
:100370000895F89400916E00102A002700936E00F3
:10038000789408950000012D0F7E102E089500002E
:1003900008950CE3009368000E9448010E94D50173
:1003A0000E9452010E94D501089504E614E624E655
:1003B0002A95F1F71A95D9F70A95C1F70895309162
:1003C0006E00689437F930936E00189530916E0086
:1003D000689436F930936E00189530916E006894E9
:1003E00034F930936E00189530916E00689435F9A9
:0603F00030936E00189529
:00000001FF
