:020000020000FC
:0C0000000C9440000C9499020C94A00297
:040028000C94A7028B
:040040000C94AE026C
:100050000000000000AA0000030066021200660211
:100060001300060200550000100014021100660281
:10007000120066021300FB011400F201EEEE000014
:1000800008E00EBF0FE50DBF002700936800009346
:10009000660000936F0000936E0000936000009371
:1000A0006100009376000093740000937500009344
:1000B00073000093640000936500009370000E9439
:1000C00039020E943C0200241124222400E000BDD9
:1000D0000FEC09B902E00BB908E10AB906E800BD66
:1000E0004427552700E207B90FE806B9369A8C9ADB
:1000F0008F9A929A949800E109BF00E00FBD0BE03F
:100100000EBD03E00BBD0FEC0ABD04E008BF00E02C
:1001100003BD0FE005BF00EC0BBF789400C00E9448
:1001200058020E94B40113FC0E94ED0117FC0E94CA
:10013000AB0016FC0E94B80015FC0E94C30007FC2F
:10014000000006FC0E94D60003FC0E947F0114FC04
:100150000E946102E4CF909160008091610001965D
:100160009093600080936100012D0F77102E089509
:100170000091700003950093700006FC0895012D16
:100180000F7B102E089514FE089504B10000009313
:10019000650005B1000000936400009373000E94A5
:1001A0002A02369A012D0F7D102E089516FC03C0E9
:1001B00027FC37C076C0012D0F7B102E27FC16C000
:1001C00027FE00C0022D0068202E0027009360004B
:1001D0000093610032D00AE5009368000E94140287
:1001E000D2E0C0E00027099309935BC0002D0F7B8C
:1001F000002E00926F00022D0F77202E10916000CC
:1002000020916100109378002093790000270093DB
:100210006000009361000FEF099308830E942102A0
:1002200040C0909160008091610010917400209115
:10023000750082179107A8F10AC090916000809123
:1002400061000A9690937400809375000895109150
:10025000730026FC0CC000C0022D0062202E133754
:1002600078F0022D0F7D202E1A3750F41AC025FC8D
:1002700001C003C0133720F414C01A3708F011C0AE
:10028000022D10E40127202ED8DF9091600080918C
:10029000610026FC089726FE0B9706FD906899934F
:1002A00089930895B3E0A0E0D2E0C0E020E0099196
:1002B0001991021712072FEF59F00895099119911A
:1002C0002FEF021711F4120701F407FF01C000C05D
:1002D000099119910217E1F71207D1F724970991B3
:1002E00019910D931D939091780080917900811B55
:1002F000900B90937A0080937B00E0CF089514FEDA
:10030000089500E30021003131F0003391F0003214
:1003100059F014D00895509160000E94B00150919E
:1003200061000E94B0010895509173000E94B001D5
:100330000895509170000E94B001089500916100ED
:1003400010917600011709F4089500937600E3DF19
:10035000EBDF08955F9BFECF4CB140936B00089597
:100360005D9BFECF5CB908955F9B08954CB14093AF
:100370006B0000916600039500936600013041F028
:10038000043089F0023041F0EA95033029F00895F5
:10039000F0E0E0E5E395EDCF349604910E3EB1F048
:1003A0000417A9F3F9CF3296049131961491E02FF6
:1003B000F12F40936800012D0860102E0027009354
:1003C000660008950CB15F99FDCF08954427012D73
:1003D000077F102EF3DFF6DF0895012D077F102E23
:1003E00009950895002D077C10916800012B002EBF
:1003F00000926F000895002D0064002E00926F009F
:100400000AE3009368000E9414020895D2E0C0E05D
:1004100009911991502F0E94B001512F0E94B001F3
:100420000F3F09F0F5CF08950AE605BD2091680059
:1004300020936D00222329F094980E94920223BDFC
:10044000089500E005BD97980E949202949AF8CF13
:10045000979AF6CFB0917100A0917200009164005C
:100460000D93A03409F405D0A09372000ED018D0DB
:100470000895B1E0A0E0089500E4B0937100A09366
:1004800072000D93A034E9F7089500271127222761
:10049000F0DF0D91100F08F42395A034D1F70895E3
:1004A00006E0259517950A95E1F7109373000895D6
:1004B000F89400916E00102A002700936E00789443
:1004C00008950000012D0F7E102E0895000008955C
:1004D0000CE3009368000E9414020E9480020E94B4
:1004E00021020E948002089555E30E94B001089500
:1004F00050E40E94B001089555E40E94B0010895AF
:1005000004E614E624E62A95F1F71A95D9F70A9538
:10051000C1F7089500ED1AEC1A95F1F70A95E1F785
:100520000000089503E013E11A95F1F70A95E1F749
:10053000089530916E00689437F930936E001895E5
:1005400030916E00689436F930936E0018953091B2
:100550006E00689434F930936E00189530916E00F7
:0A056000689435F930936E00189589
:00000001FF
