:020000020000FC
:020000005FC0DF
:1000C00008E00EBF0FE50DBF0FEC09B900E000BD61
:1000D00002E00BB908E10AB906E800BD0FEF8F9AFC
:1000E00040E050E000E003BD0AE605BD00C003D0DB
:1000F000403061F4FCCF5F9BFECF4CB108955D9B17
:10010000FECF05E30CB90895979AF1CF0AE605BD35
:10011000F1E0ECE1E40F649163BDE9CF0001040676
:10012000090B0E101316181B1D202225272A2D2F10
:10013000323437393C3F414446494B4E5053565870
:100140005B5D606265676A6D6F727477797C7F81D1
:100150008486898B8E909396989B9DA0A2A5A7AA32
:10016000ADAFB2B4B7B9BCBFC1C4C6C9CBCED0D392
:10017000D6D8DBDDE0E2E5E7EAEDEFF2F4F7F9FCF3
:02018000FF007E
:00000001FF
