:020000020000FC
:0200000027C017
:040004000C94480010
:1000500008E00EBF0FE50DBF0FEC09B900E000BDD1
:1000600002E00BB908E10AB906E800BD40E050E043
:100070008F9A929A03E005BF00E40BBF789400E0EA
:1000800003BD0AE605BD00C006D0403071F4FCCFC8
:1000900055E305D018955F9BFECF4CB108955D9B4D
:1000A000FECF5CB90895979AEFCF0AE605BDF0E060
:1000B000EEEBE40F0027F01F749173BDE5CF000154
:1000C0000406090B0E101316181B1D202225272AC3
:1000D0002D2F323437393C3F414446494B4E505323
:1000E00056585B5D606265676A6D6F727477797C84
:1000F0007F818486898B8E909396989B9DA0A2A5E4
:10010000A7AAADAFB2B4B7B9BCBFC1C4C6C9CBCE44
:10011000D0D3D6D8DBDDE0E2E5E7EAEDEFF2F4F7A5
:04012000F9FCFF00E7
:00000001FF
