:020000020000FC
:0C0000000C943C000C944B010C94520139
:040028000C945901DA
:040040000C946001BB
:1000500000AA000003001901120019010055000058
:1000600010003101110019011200190113001901CA
:100070001400C600EEEE000008E00EBF0FE50DBF55
:100080000027009368000093660000936F000093C0
:100090006E000024112400E000BD0FEC09B902E05D
:1000A0000BB908E10AB906E800BD4427552700E26C
:1000B00007B90FE806B9369A8F9A929A00E00ABB00
:1000C000000000E109BF00E00FBD0BE00EBD04EF32
:1000D0000BBD03E20ABD04E008BF00E003BD03E07E
:1000E00005BF00E40BBF789400C00E94420117FCDA
:1000F0000E948F0016FC000015FC0E949B0014FC5F
:1001000000000E94D90013FC0E941601112407FC74
:10011000000006FC000003FC0E94A500E6CF9091C1
:10012000600080916100019690936000809361006F
:1001300008950000089504B100000093650005B122
:10014000000000936400369A089514FE089500E3B9
:100150000021003141F00033A1F0003269F003D0FA
:100160000BD00FD00895509160000E94D50050919F
:1001700061000E94D5000895509164000E94D5004E
:100180000895509170000E94D5000895002D077CBD
:1001900010916800012B002E00926F0008955F9B64
:1001A000FECF4CB140936B0008955D9BFECF5CB9D0
:1001B00008955F9B08954CB140936B0000916600D9
:1001C000039500936600013041F0043089F002305D
:1001D00041F0EA95033029F00895F0E0E0E5E39579
:1001E000EDCF349604910E3EA1F00417A9F3F9CF98
:1001F0003296049131961491E02FF12F40936800CC
:100200000DD000270093660008950CB15F99FDCFD3
:100210000895442707D0F5DFF8DF0895012D086021
:10022000102E0895012D077F102E0895FBDF0995EC
:100230000895000008950CE3009368000E943101C6
:100240000E9427010E943B010E9427010895B4E605
:10025000A4E694E69A95F1F7AA95D9F7BA95C1F76D
:1002600008950AE605BD0091680000936D00002323
:1002700011F003BD089500E005BD9798FBCFFACFBC
:10028000979AF8CFF89430916E00132E332730935D
:100290006E007894089530916E00689437F9309329
:1002A0006E00189530916E00689436F930936E00A8
:1002B000189530916E00689434F930936E0018955B
:0E02C00030916E00689435F930936E001895F9
:00000001FF
