:020000020000FC
:100000000C943A000C940F010C9416010C941801F6
:040028000C941A0119
:040040000C941C01FF
:1000500000AA00000300D8001200D80000550000DC
:100060001000F0000200D8000300D8001200D800F1
:10007000EEEE000008E00EBF0FE50DBF0027009375
:10008000680000936F0000936E000093660000E02C
:1000900000BD0FEC09B902E00BB908E10AB906E8A6
:1000A00000BD4427552700E207B90FE806B98F9A2B
:1000B000929A00E00ABB000000E109BF00E00FBD1A
:1000C0000BE00EBD07E00BBD00EA0ABD04E008BF6F
:1000D00000E003BD03E005BF00E40BBF789400C05F
:1000E0000E94010107FC000006FC000003FC000068
:1000F00017FC000016FC000015FC000014FC0000BA
:100100000E949A0013FC0E94D50000241124E8CF1D
:10011000000008950000089500000895000008956B
:100120005F9BFECF4CB140936B0008955D9BFECF6B
:100130005CB908955F9B08954CB1009166000395EA
:1001400000936600013041F0043089F0023041F044
:10015000EA95033029F00895F0E0E0E5E395EDCF6E
:10016000349604910E3EA1F00417A9F3F9CF32960C
:10017000049131961491E02FF12F409368000DD037
:1001800000270093660008950CB15F99FDCF089594
:10019000442707D0F5DFF8DF0895012D0860102E01
:1001A0000895012D077F102E0895FBDF099508950E
:1001B000000008950CE3009368000E94F0000E9484
:1001C000E6000E94FA000E94E6000895B4E6A4E664
:1001D00094E69A95F1F7AA95D9F7BA95C1F70895DB
:1001E0000AE605BD0091680000936D00002311F040
:1001F00003BD089500E005BD9798FBCFFACF979A0D
:10020000F8CFF89420916F00022E20916E00122EEC
:10021000222720936F0020936E00789408952091F8
:100220006E00689427F920936E00189500001895C9
:0C023000000018950000189500001895BB
:00000001FF
