:020000020000FC
:0C0000000C943C000C949A010C94A1019B
:040028000C94A8018B
:040040000C94AF016C
:1000500000AA000003008201120082010055000086
:10006000100035011100820112008201130082018B
:100070001400E200EEEE000008E00EBF0FE50DBF39
:100080000027009368000093660000936F000093C0
:100090006E00009360000093610000937300009372
:1000A0006400009365000E9455010E9458010024DD
:1000B000112400E000BD0FEC09B902E00BB908E122
:1000C0000AB906E800BD4427552700E207B90FE842
:1000D00006B9369A8F9A929A00E00ABB000000E1B6
:1000E00009BF00E00FBD0BE00EBD03E00BBD0FEC40
:1000F0000ABD04E008BF00E003BD03E005BF00E463
:100100000BBF789400C00E94740117FC0E949E00EF
:1001100016FC0E94AB0015FC0E94B0000E94F50086
:1001200013FC0E94320107FC000006FC000003FCE7
:100130000E94C10014FC0E947D01E5CF90916000F7
:100140008091610001969093600080936100012D81
:100150000F77102E08950000012D0F7B102E0895AB
:1001600014FE089504B100000093650005B100007D
:10017000009364000E944601369A012D0F7D102ED7
:10018000089514FE089500E30021003141F000338A
:10019000A1F0003269F003D00BD00FD00895509138
:1001A00060000E94F100509161000E94F1000895EA
:1001B000509173000E94F1000895509170000E94C8
:1001C000F1000895002D077C10916800012B002E8E
:1001D00000926F0008955F9BFECF4CB140936B007F
:1001E00008955D9BFECF5CB908955F9B08954CB167
:1001F00040936B0000916600039500936600013008
:1002000041F0043089F0023041F0EA95033029F0E2
:100210000895F0E0E0E5E395EDCF349604910E3ECD
:10022000A1F00417A9F3F9CF3296049131961491F5
:10023000E02FF12F409368000DD000270093660057
:1002400008950CB15F99FDCF0895442707D0F5DFDD
:10025000F8DF0895012D0860102E0895012D077F05
:10026000102E0895FBDF099508950AE605BD00915B
:10027000680000936D00002311F003BD089500E0B5
:1002800005BD9798FBCFFACF979AF8CFB091710040
:10029000A0917100009164000D93A03809F405D07D
:1002A000A09371000ED018D00895B1E0A0E0089599
:1002B00000E8B0937100A09371000D93A038E9F7A6
:1002C0000895002711272227F0DF0D91100F08F461
:1002D0002395A038D1F7089507E0259517950A953D
:1002E000E1F7109373000895F89400916E00102ABE
:1002F000002700936E00789408950000012D0B7F75
:10030000102E0895000008950CE3009368000E94E9
:1003100035010E9490010E943F010E9490010895C2
:1003200004E614E624E62A95F1F71A95D9F70A951A
:10033000C1F7089530916E00689437F930936E00DC
:10034000189530916E00689436F930936E001895C8
:1003500030916E00689434F930936E0018953091A6
:0C0360006E00689435F930936E0018951B
:00000001FF
