:020000020000FC
:020000005FC0DF
:1000C00008E00EBF0FE50DBF0FEC09B900E000BD61
:1000D00002E00BB908E10AB906E800BD40E050E0D3
:1000E0008F9A00E003BD0AE605BD00C04030B9F4B8
:1000F00005D0FCCF5F9BFECF4CB108955D9BFECF3A
:1001000055E300005CB90895403049F408950000BB
:1001100008950000089500000895979AE7CF0AE631
:1001200005BDF1E0EEE2E40F649163BDDFCF0001B5
:100130000406090B0E101316181B1D202225272A52
:100140002D2F323437393C3F414446494B4E5053B2
:1001500056585B5D606265676A6D6F727477797C13
:100160007F818486898B8E909396989B9DA0A2A573
:10017000A7AAADAFB2B4B7B9BCBFC1C4C6C9CBCED4
:10018000D0D3D6D8DBDDE0E2E5E7EAEDEFF2F4F735
:04019000F9FCFF0077
:00000001FF
