:020000020000FC
:0200000027C017
:0200040058C0E2
:0200280051C0C5
:0200400047C0B7
:1000500008E00EBF0FE50DBF00E00ABB00E007B9E6
:100060000FE806B90FEC09B900E000BD02E00BB9DA
:1000700008E10AB906E800BD40E050E08F9A929A84
:1000800003E005BF00E40BBF00E109BF00E00FBDC6
:100090000BE00EBD0DE30BBD08E00ABD04E008BF98
:1000A00000E003BD0AE605BD789400C00E945E0032
:1000B0004030D1F4FBCF55E305D018955F9BFECFC0
:1000C0004CB108955D9BFECF5CB90895369A1895A2
:1000D00084B1000095B102E0979587950A95E1F704
:1000E0005D9BFECF8CB918950AE605BDF0E0ECEFFC
:1000F000E40F0027F01F749173BDD8CF00010406F0
:10010000090B0E101316181B1D202225272A2D2F30
:10011000323437393C3F414446494B4E5053565890
:100120005B5D606265676A6D6F727477797C7F81F1
:100130008486898B8E909396989B9DA0A2A5A7AA52
:10014000ADAFB2B4B7B9BCBFC1C4C6C9CBCED0D3B2
:10015000D6D8DBDDE0E2E5E7EAEDEFF2F4F7F9FC13
:02016000FF009E
:00000001FF
