:020000020000FC
:0C0000000C9440000C943E020C9445024D
:040028000C944C02E6
:040040000C945302C7
:100050000000000000AA000003001A0212001A02A9
:100060001300C401005500001000CE0111001A0257
:1000700012001A021300B9011400B001EEEE0000E4
:1000800008E00EBF0FE50DBF002700936800009346
:10009000660000936F0000936E0000936000009371
:1000A0006100009376000093740000937500009344
:1000B00073000093640000936500009370000E9439
:1000C000ED010E94F00100241124222400E000BD73
:1000D0000FEC09B902E00BB908E10AB906E800BD66
:1000E0004427552700E207B90FE806B9369A8F9AD8
:1000F000929A00E00ABB00E109BF00E00FBD0BE0EF
:100100000EBD03E00BBD0FEC0ABD04E008BF00E02C
:1001100003BD0FE005BF00EC0BBF789400C00E9448
:100120000C020E94700113FC0E94AD0117FC0E949A
:10013000AB0016FC0E94B80015FC0E94C30007FC2F
:10014000000006FC0E94D60003FC0E943B0114FC48
:100150000E941502E4CF90916000809161000196A9
:100160009093600080936100012D0F77102E089509
:100170000091700003950093700006FC0895012D16
:100180000F7B102E089514FE089504B10000009313
:10019000650005B1000000936400009373000E94A5
:1001A000DE01369A012D0F7D102E089516FC03C036
:1001B00027FC24C05FC0012D0F7B102E27FC10C030
:1001C00027FE00C0022D0068202E0AE5009368007B
:1001D0000E94CE01D2E0C0E00027099309934AC0F3
:1001E000002D0F7B002E00926F00022D0F77202E26
:1001F0000FEF099308830E94D8013CC090916000E2
:100200008091610010917400209175008217910710
:1002100088F10AC090916000809161000A969093E5
:1002200074008093750008951091730026FC0CC033
:1002300000C0022D0062202E1A3778F0022D0F7DAB
:10024000202E1A3750F416C025FC01C003C0133706
:1002500020F410C0133708F00DC0022D10E4012760
:10026000202E109160002091610006FD1068D2DF01
:1002700019932993089514FE089500E30021003195
:1002800031F0003391F0003259F014D008955091BC
:1002900060000E946C01509161000E946C01089501
:1002A000509173000E946C010895509170000E945B
:1002B0006C0108950091610010917600011709F416
:1002C000089500937600E3DFEBDF08955F9BFECF98
:1002D0004CB140936B0008955D9BFECF5CB90895CF
:1002E0005F9B08954CB140936B00009166000395AD
:1002F00000936600013041F0043089F0023041F093
:10030000EA95033029F00895F0E0E0E5E395EDCFBC
:10031000349604910E3EA1F00417A9F3F9CF32965A
:10032000049131961491E02FF12F409368000DD085
:1003300000270093660008950CB15F99FDCF0895E2
:10034000442707D0F5DFF8DF0895012D0860102E4F
:100350000895012D077F102E0895FBDF099508955C
:10036000002D077C10916800012B002E00926F0079
:100370000895002D0064002E00926F0008E30093A2
:1003800068000E94CE010895D2E0C0E009910F3FBD
:1003900021F0502F0E946C01F9CF08950AE605BDA7
:1003A0000091680000936D00002311F003BD0895D3
:1003B00000E005BD9798FBCF979AF9CFB0917100F7
:1003C000A0917200009164000D93A03409F405D04F
:1003D000A09372000ED018D00895B1E0A0E0089567
:1003E00000E4B0937100A09372000D93A034E9F77C
:1003F0000895002711272227F0DF0D91100F08F430
:100400002395A034D1F7089506E0259517950A9510
:10041000E1F7109373000895F89400916E00102A8C
:10042000002700936E00789408950000012D0F7E40
:10043000102E0895000008950CE3009368000E94B8
:10044000CE010E9434020E94D8010E943402089515
:1004500055E30E946C01089550E40E946C010895D8
:1004600055E40E946C01089504E614E624E62A95FA
:10047000F1F71A95D9F70A95C1F7089530916E00F2
:10048000689437F930936E00189530916E00689437
:1004900036F930936E00189530916E00689434F9F7
:1004A00030936E00189530916E00689435F9309352
:0404B0006E0018952D
:00000001FF
